:020000040800F2
:100000000028002035140008C5130008CB13000891
:10001000D1130008D7130008DD130008000000000A
:10002000000000000000000000000000E3130008D2
:10003000EF13000800000000FB130008071400087D
:100040007D1400087D1400087D1400087D1400084C
:100050007D1400087D1400087D1400087D1400083C
:100060007D1400087D1400087D1400087D1400082C
:100070007D1400087D1400087D1400087D1400081C
:100080007D1400087D1400087D1400087D1400080C
:100090007D1400087D1400087D1400087D140008FC
:1000A0007D1400087D1400087D1400087D140008EC
:1000B000151400087D140008000000007D140008DD
:1000C0007D14000800000000000000007D140008FE
:1000D000000000007D1400087D14000800000000EE
:1000E0007D1400087D1400087D1400080000000045
:1000F0000000000000000000000000000000000000
:0C01000000000000000000005FF808F1A3
:10010C0010B5054C237833B9044B13B10448AFF345
:10011C0000800123237010BD74000020000000003B
:10012C00C42A000808B5034B1BB103490348AFF3BD
:10013C00008008BD0000000078000020C42A0008E0
:10014C0080B400AF064B1B68012B04D1044B00227A
:10015C001A60012300E000231846BD4680BC70479E
:10016C009000002080B400AF064B1B68012B04D11B
:10017C00044B00221A60012300E000231846BD4600
:10018C0080BC70479400002080B400AF064B1B6805
:10019C00012B04D1044B00221A60012300E0002340
:1001AC001846BD4680BC70479800002080B483B0D0
:1001BC0000AF78607B68012B02D10A4B01221A60D8
:1001CC007B68022B02D1084B01221A607B68032B3F
:1001DC0002D1064B01221A6000BF0C37BD4680BC11
:1001EC00704700BF90000020940000209800002071
:1001FC0080B500AF634B1B68634A1360634B1B688D
:10020C00604A13604FF48071614801F01DFC034695
:10021C001A465E4B1A605F4B1B685F4A13605F4B5C
:10022C001B685C4A13604FF40071594801F00CFCD8
:10023C0003461A46594B1A60594B1B68594A1360AE
:10024C00594B1B68564A13604FF48061504801F0BB
:10025C00FBFB03461A46544B1A604B4B1A68494B2E
:10026C001B689A422AD1474B1A68484B1B689A4222
:10027C0024D1464B1A684D4B1B689A420BD0434B0A
:10028C001B684A4A1360414B1B68002B16D1012096
:10029C00FFF78CFF12E0464B1B68013B444A13608E
:1002AC00434B1B68002B09DC384B1B68002B02D11D
:1002BC000120FFF77BFF3E4BC8221A60364B1A68B1
:1002CC00344B1B689A422AD1324B1A68334B1B6849
:1002DC009A4224D1314B1A68364B1B689A420BD088
:1002EC002E4B1B68334A1360284B1B68002B16D10E
:1002FC000220FFF75BFF12E02D4B1B68013B2C4AE1
:10030C0013602B4B1B68002B09DC244B1B68002B48
:10031C0002D10220FFF74AFF254BC8221A60214B5D
:10032C001A681F4B1B689A422AD11D4B1A681E4B28
:10033C001B689A4224D11C4B1A681F4B1B689A42AB
:10034C000BD0194B1B681C4A1360174B1B68002BF6
:10035C0016D10320FFF72AFF12E0154B1B68013B57
:10036C00134A1360124B1B68002B09DC0E4B1B68E5
:10037C00002B02D10320FFF719FF0D4BC8221A6086
:10038C0000BF80BD040000200000002008000020F9
:10039C00000C0140100000200C0000201400002074
:1003AC001C00002018000020200000202400002049
:1003BC0030000020280000202C00002080B500AF69
:1003CC00734B1B68163B032B00F2D68001A252F82C
:1003DC0023F000BFF10300085F040008C10400080B
:1003EC0023050008002202216A4801F044FB012287
:1003FC000821684801F03FFB01220421654801F007
:10040C003AFB01221021634801F035FB0022402108
:10041C00604801F030FB012220215E4801F02BFBEB
:10042C005D4B1B68012B06D1594B02221A6040F61A
:10043C00B83000F0A5FEFFF783FE0346012B40F019
:10044C009D80534B17221A6042F2107000F098FEF8
:10045C0094E0524B02221A6000F0A8F800F08EFCD7
:10046C004D4B1B68012B06D1494B02221A6040F6FA
:10047C00B83000F085FEFFF763FE0346012B7FD1F9
:10048C00434B18221A6042F2107000F079FEFFF70D
:10049C0069FE0346012B05D1414B1B68A3F57A730A
:1004AC003F4A136000F010FD0346002B68D000F0AB
:1004BC00E9FC65E0394B03221A6000F077F800F094
:1004CC00B5FC354B1B68012B06D1314B02221A604F
:1004DC0040F6B83000F054FEFFF732FE0346012B15
:1004EC0050D12B4B19221A6042F2107000F048FECA
:1004FC00FFF738FE0346012B05D12A4B1B68A3F5E9
:10050C007A73284A136000F0DFFC0346002B39D0C5
:10051C0000F0B8FC36E0214B04221A6000F046F8DB
:10052C0000F058FC1C4B1B68012B06D1184B022207
:10053C001A6040F6B83000F023FEFFF701FE0346C8
:10054C00012B21D1124B16221A6042F2107000F0CE
:10055C0017FEFFF707FE0346012B05D1124B1B6854
:10056C00A3F57A73104A136000F0AEFC0346002B1F
:10057C000AD000F087FC07E000BF06E000BF04E0F3
:10058C0000BF02E000BF00E000BF00BF80BD00BFA5
:10059C004C00002000080140A8000020380000207A
:1005AC005C000020640000206000002080B400AFDC
:1005BC00254B1B68254A82FB03129210DB17D31ABA
:1005CC00234A1360204B1968204B83FB01239A109C
:1005DC00CB17D21A13469B0013445B00CA1A1C4B50
:1005EC005A601C4B1B68194A82FB03129210DB17D2
:1005FC00D31A174A9360174B1968144B83FB0123CA
:10060C009A10CB17D21A13469B0013445B00CA1ADC
:10061C000F4BDA600C4B1B68092B06DC0C4B0022D1
:10062C001A60094B1B680A4A53600A4B1B68092B5A
:10063C0006DC074B00229A60064B1B68044AD36009
:10064C0000BFBD4680BC70473400002067666666FC
:10065C003C0000203800002080B500AFAF4B1B6879
:10066C00012B20D1AE4B1A68AE4B1B689A4217DA9D
:10067C00FA2000F0A1FDAA4B1B68AB4A52F82330BC
:10068C00184600F06FF9A64B1B68184600F0F8FAF4
:10069C00FFF78CFFA24B1B680133A14A136002E0E9
:1006AC009F4B00221A60A14B1B68012B5DD1FFF7F9
:1006BC0047FD0346002B0AD19D4B1B68013B9C4A0E
:1006CC0013609C4B1B68013B9A4A136007E0984BE4
:1006DC001B68013B964A1360964B02221A60954B9D
:1006EC001B68002B06DC924B1B68002B02DD914B28
:1006FC0002221A608E4B1B68002B10DC8D4B1B6882
:10070C00002B0CDC8C4B1B68002B08D18A4B012274
:10071C001A60874B03221A60864B05221A60844BA1
:10072C001B68002B06DC834B1B68002B02DD804B07
:10073C0002221A607E4B1B68002B10DC7D4B1B6861
:10074C00002B0CDC7C4B1B68012B08D17A4B002254
:10075C001A60774B05221A60764B03221A60FFF75A
:10076C0025FF4FF47A7000F043FD744B1B68013B7E
:10077C00042B00F2D18001A252F823F09D0700084F
:10078C00B30700082308000879080008CF08000800
:10079C0000F0B2FA694B02221A60694B1B681846CA
:1007AC0000F0EEFCDBE000220221664801F063F968
:1007BC0001220821634801F05EF9012204216148FD
:1007CC0001F059F9012210215E4801F054F9002280
:1007DC0040215C4801F04FF901222021594801F0D9
:1007EC004AF9594B1B68012B07D1584B1B6818460B
:1007FC0000F0C6FC514B03221A60FFF7A1FC034624
:10080C00012B40F0A5804D4B16221A6042F210705D
:10081C0000F0B6FC9CE0002202214A4801F02BF9C2
:10082C0001220821474801F026F9012204214548FC
:10083C0001F021F901221021424801F01CF901229A
:10084C004021404801F017F9002220213D4801F0D9
:10085C0012F93D4B1B68012B7CD1394B1B68184698
:10086C0000F08EFC354B04221A6073E00122022149
:10087C00344801F000F900220821324801F0FBF85D
:10088C00012204212F4801F0F6F8002210212D48F6
:10089C0001F0F1F8012240212A4801F0ECF8012284
:1008AC002021284801F0E7F8274B1B68012B53D176
:1008BC00264B1B68184600F063FC204B05221A607F
:1008CC004AE0012202211F4801F0D5F8012208213B
:1008DC001C4801F0D0F8002204211A4801F0CBF892
:1008EC0000221021174801F0C6F8012240211548BA
:1008FC0001F0C1F801222021124801F0BCF8124B82
:10090C001B68012B2AD10E4B1B68184600F038FCD3
:10091C000A4B02221A6021E000BF20E0B000002048
:10092C00A0000020DC2A00083C000020B8000020B9
:10093C0034000020380000209C0000204C000020D7
:10094C005400002000080140A8000020580000209E
:10095C0000BF04E000BF02E000BF00E000BF00BF2A
:10096C0080BD00BF80B582B000AF78607B68092B7A
:10097C0000F2808101A252F823F000BFB1090008F7
:10098C00F9090008410A0008890A0008D10A000880
:10099C00190B0008610B0008A90B0008F10B0008EB
:1009AC00390C000800220121B44801F064F800223F
:1009BC000221B24801F05FF800220421AF4801F097
:1009CC005AF800220821AD4801F055F800221021F8
:1009DC00AA4801F050F800222021A84801F04BF859
:1009EC0001224021A54801F046F843E101220121F2
:1009FC00A24801F040F800220221A04801F03BF887
:100A0C00002204219D4801F036F8012208219B4860
:100A1C0001F031F801221021984801F02CF8012244
:100A2C002021964801F027F801224021934801F03B
:100A3C0022F81FE100220121904801F01CF800224D
:100A4C0002218E4801F017F8012204218B4801F095
:100A5C0012F800220821894801F00DF8002210211B
:100A6C00864801F008F801222021844801F003F89F
:100A7C0000224021814800F0FEFFFBE00022012112
:100A8C007E4800F0F8FF002202217C4800F0F3FFC2
:100A9C0000220421794800F0EEFF0022082177485B
:100AAC0000F0E9FF01221021744800F0E4FF01225C
:100ABC002021724800F0DFFF002240216F4800F037
:100ACC00DAFFD7E0012201216C4800F0D4FF0022AC
:100ADC0002216A4800F0CFFF00220421674800F091
:100AEC00CAFF01220821654800F0C5FF0122102130
:100AFC00624800F0C0FF00222021604800F0BBFFDC
:100B0C00002240215D4800F0B6FFB3E00022012135
:100B1C005A4800F0B0FF01220221584800F0ABFF08
:100B2C0000220421554800F0A6FF0022082153485A
:100B3C0000F0A1FF01221021504800F09CFF002280
:100B4C0020214E4800F097FF002240214B4800F036
:100B5C0092FF8FE000220121484800F08CFF012217
:100B6C000221464800F087FF00220421434800F090
:100B7C0082FF00220821414800F07DFF0022102155
:100B8C003E4800F078FF002220213C4800F073FF23
:100B9C0000224021394800F06EFF6BE00022012159
:100BAC00364800F068FF00220221344800F063FF51
:100BBC0000220421314800F05EFF012208212F4859
:100BCC0000F059FF012210212C4800F054FF0122A3
:100BDC0020212A4800F04FFF01224021274800F035
:100BEC004AFF47E000220121244800F044FF002284
:100BFC000221224800F03FFF002204211F4800F090
:100C0C003AFF002208211D4800F035FF0022102178
:100C1C001A4800F030FF00222021184800F02BFF6A
:100C2C0000224021154800F026FF23E0002201217C
:100C3C00124800F020FF00220221104800F01BFF98
:100C4C00002204210D4800F016FF002208210B4859
:100C5C0000F011FF01221021084800F00CFF0022C7
:100C6C002021064800F007FF00224021034800F035
:100C7C0002FF00BF00BF0837BD4680BD000C01401D
:100C8C0080B582B000AF78607B68032B2DD801A2B1
:100C9C0052F823F0B10C0008C10C0008D30C00086A
:100CAC00E50C000800F04CF800228021114800F0FF
:100CBC00E2FE1AE000F044F800224FF480710D4877
:100CCC0000F0D9FE11E000F03BF800224FF4007167
:100CDC00084800F0D0FE08E000F032F800224FF493
:100CEC008061044800F0C7FE00BF00BF0837BD4656
:100CFC0080BD00BF0008014080B500AF0122022179
:100D0C000E4800F0B8FE012204210C4800F0B3FE9E
:100D1C0001220821094800F0AEFE012210210748EB
:100D2C0000F0A9FE01222021044800F0A4FE0122BB
:100D3C004021024800F09FFE00BF80BD000801402A
:100D4C0080B500AF012280210B4800F094FE0122F7
:100D5C004FF48071084800F08EFE01224FF40071B0
:100D6C00054800F088FE01224FF48061024800F033
:100D7C0082FE00BF80BD00BF0008014080B500AFFF
:100D8C00124B1B68012B1FD10221114800F08BFE66
:100D9C00012208210E4800F06EFE012204210C48AD
:100DAC0000F069FE10210A4800F07DFE012240216E
:100DBC00074800F060FE01222021054800F05BFE90
:100DCC004FF4FA7000F030FA00BF80BDC000002074
:100DDC000008014080B500AF124B1B68012B1FD1DE
:100DEC0001220221104800F046FE08210E4800F0B6
:100DFC005AFE012204210C4800F03DFE0122102174
:100E0C00094800F038FE4021074800F04CFE012252
:100E1C002021054800F02FFE4FF4FA7000F004FA80
:100E2C0000BF80BDC00000200008014080B500AFAD
:100E3C00124B1B68012B1FD101220221104800F01C
:100E4C001AFE012208210E4800F015FE04210C4860
:100E5C0000F029FE01221021094800F00CFE0122AD
:100E6C004021074800F007FE2021054800F01BFE3A
:100E7C004FF4FA7000F0D8F900BF80BDC00000201C
:100E8C000008014080B500AFFFF77EF90346002B48
:100E9C000BD0074B1B68074A1360074B1B68074AAC
:100EAC001360074B1B68074A136000BF80BD00BF6F
:100EBC005C00002050000020600000205400002046
:100ECC00640000205800002080B483B000AF0A4BAF
:100EDC001A680A4B1B6813447B60094A7B681360D1
:100EEC00074B1B68002B01D1002300E0012318469F
:100EFC000C37BD4680BC70475800002054000020C1
:100F0C005000002080B500AF00F0B4FA00F03CF8BF
:100F1C0000F076F800F0C0F8144801F009FA144B10
:100F2C0001221A60134B1B68134A82FB03129211A5
:100F3C00DB17D31A114A1360114B1B680E4A82FB44
:100F4C0003129211DB17D31A0E4A1360FA2000F029
:100F5C0033F94FF47A7000F04BF94FF4FA7000F05B
:100F6C0063F9FFF72BFAFFF777FBFAE7C4000020D1
:100F7C004C00002050000020D34D621034000020A3
:100F8C00540000203800002080B590B000AF07F16D
:100F9C00180328220021184601F086FD3B1D002273
:100FAC001A605A609A60DA601A610223BB610123ED
:100FBC00BB621023FB6200237B6307F11803184606
:100FCC0000F08AFD0346002B01D000F0D3F80F236C
:100FDC007B600023BB600023FB6000233B6100238C
:100FEC007B613B1D0021184600F0F6FF0346002BE9
:100FFC0001D000F0BFF800BF4037BD4680BD0000F7
:10100C0080B586B000AF07F1080300221A605A6061
:10101C009A60DA603B4600221A605A601D4B4FF012
:10102C0080421A601B4B41F63F725A60194B0022EA
:10103C009A60184B0922DA60164B00221A61154B84
:10104C0000229A61134801F023F90346002B01D0CA
:10105C0000F090F84FF48053BB6007F10803194679
:10106C000C4801F0B9FA0346002B01D000F082F8CD
:10107C0000233B6000237B603B461946054801F08A
:10108C0085FC0346002B01D000F074F800BF183724
:10109C00BD4680BDC400002080B586B000AF07F10E
:1010AC00080300221A605A609A60DA60284B9B6928
:1010BC00274A43F004039361254B9B6903F0040317
:1010CC007B607B68224B9B69214A43F00803936148
:1010DC001F4B9B6903F008033B603B68002240F206
:1010EC00FE711C4800F0C7FC00227F211A4800F05A
:1010FC00C2FC40F2FE73BB600123FB6000233B612A
:10110C0002237B6107F108031946124800F022FB09
:10111C007F23BB600123FB6000233B6102237B61C7
:10112C0007F1080319460C4800F014FB4FF4E06378
:10113C00BB600023FB6001233B6107F108031946E8
:10114C00054800F007FB00BF1837BD4680BD00BF47
:10115C000010024000080140000C014080B582B034
:10116C0000AF786000F07CF8FFF742F800BF08375A
:10117C00BD4680BD80B400AF72B600BFFEE7000074
:10118C0080B483B000AF78607B68084A82FB03129E
:10119C009210DB17D31A064A1360064B00221A6012
:1011AC0000BF0C37BD4680BC704700BF67666666E3
:1011BC00A4000020A800002080B483B000AF7860A9
:1011CC007B68084A82FB03129210DB17D31A064A7B
:1011DC001360064B00221A6000BF0C37BD4680BC62
:1011EC00704700BF67666666AC000020B000002048
:1011FC0080B483B000AF78607B68084A82FB03122E
:10120C009210DB17D31A064A1360064B00221A60A1
:10121C0000BF0C37BD4680BC704700BF6766666672
:10122C00B4000020B800002080B483B000AF786018
:10123C007B68084A82FB03129210DB17D31A064A0A
:10124C001360064B00221A6000BF0C37BD4680BCF1
:10125C00704700BF67666666BC000020C0000020B7
:10126C0080B400AF214B1B68002B0BDD1F4B1B68A0
:10127C00013B1E4A13601D4B1B68002B02DC1C4BF0
:10128C0001221A601B4B1B68002B0BDD194B1B68D2
:10129C00013B184A1360174B1B68002B02DC164BE2
:1012AC0001221A60154B1B68002B0BDD134B1B68BE
:1012BC00013B124A1360114B1B68002B02DC104BD4
:1012CC0001221A600F4B1B68002B0BDD0D4B1B68AA
:1012DC00013B0C4A13600B4B1B68002B02DC0A4BC6
:1012EC0001221A6000BFBD4680BC7047A4000020DC
:1012FC00A8000020AC000020B0000020B4000020AA
:10130C00B8000020BC000020C000002080B485B0D4
:10131C0000AF154B9B69144A43F001039361124BC8
:10132C009B6903F00103BB60BB680F4BDB690E4A82
:10133C0043F08053D3610C4BDB6903F080537B602B
:10134C007B680A4B5B68FB60FB6823F0E063FB6027
:10135C00FB6843F08063FB60044AFB68536000BF8A
:10136C001437BD4680BC704700100240000001409D
:10137C0080B584B000AF78607B681B68B3F1804F98
:10138C0013D10C4BDB690B4A43F00103D361094BBE
:10139C00DB6903F00103FB60FB68002200211C20C9
:1013AC0000F0A1F91C2000F0BAF900BF1037BD46BF
:1013BC0080BD00BF0010024080B400AFFEE780B4D7
:1013CC0000AFFEE780B400AFFEE780B400AFFEE7ED
:1013DC0080B400AFFEE780B400AF00BFBD4680BC58
:1013EC00704780B400AF00BFBD4680BC704780B46E
:1013FC0000AF00BFBD4680BC704780B500AF00F0A9
:10140C007FF800BF80BD000080B500AF024800F03F
:10141C00DBFF00BF80BD00BFC400002080B400AF64
:10142C0000BFBD4680BC7047FFF7F8FF0B480C4966
:10143C000C4A002302E0D458C4500433C4188C4224
:10144C00F9D3094A094C002301E013600432A2428B
:10145C00FBD301F005FBFFF755FD704700000020A2
:10146C00740000200C2B00087400002010010020D8
:10147C00FEE7000080B500AF084B1B68074A43F03D
:10148C0010031360032000F023F90F2000F008F87C
:10149C00FFF73CFF0023184680BD00BF0020024030
:1014AC0080B582B000AF7860124B1A68124B1B7873
:1014BC0019464FF47A73B3FBF1F3B2FBF3F318460E
:1014CC0000F03BF90346002B01D001230EE07B68B2
:1014DC000F2B0AD8002279684FF0FF3000F003F987
:1014EC00064A7B681360002300E001231846083786
:1014FC00BD4680BD68000020700000206C000020FC
:10150C0080B400AF054B1B781A46054B1B6813447F
:10151C00034A136000BFBD4680BC704770000020BA
:10152C000C01002080B400AF024B1B681846BD466E
:10153C0080BC70470C01002080B485B000AF78608F
:10154C007B6803F00703FB600C4BDB68BB60BA687D
:10155C004FF6FF031340BB60FB681A02BB681343D2
:10156C0043F0BF6343F40033BB60044ABB68D360F1
:10157C0000BF1437BD4680BC704700BF00ED00E0D3
:10158C0080B400AF044BDB681B0A03F0070318465A
:10159C00BD4680BC704700BF00ED00E080B483B056
:1015AC0000AF0346FB7197F90730002B0BDBFB797F
:1015BC0003F01F02064997F907305B09012000FA76
:1015CC0002F241F8232000BF0C37BD4680BC7047A7
:1015DC0000E100E080B483B000AF03463960FB71DA
:1015EC0097F90730002B0ADB3B68DAB20C4997F904
:1015FC0007301201D2B20B4483F800230AE03B6897
:10160C00DAB20849FB7903F00F03043B1201D2B2A2
:10161C000B441A7600BF0C37BD4680BC704700BF28
:10162C0000E100E000ED00E080B489B000AFF860AC
:10163C00B9607A60FB6803F00703FB61FB69C3F1D7
:10164C000703042B28BF0423BB61FB690433062B5F
:10165C0002D9FB69033B00E000237B614FF0FF32B2
:10166C00BB6902FA03F3DA43BB681A407B699A4000
:10167C004FF0FF317B6901FA03F3D9437B680B40D0
:10168C00134318462437BD4680BC704780B582B0E2
:10169C0000AF78607B68013BB3F1807F01D30123FD
:1016AC000FE00A4A7B68013B53600F214FF0FF307B
:1016BC00FFF790FF054B00229A60044B07221A603B
:1016CC00002318460837BD4680BD00BF10E000E07F
:1016DC0080B582B000AF78607868FFF72DFF00BF4F
:1016EC000837BD4680BD80B586B000AF0346B960F3
:1016FC007A60FB7300237B61FFF742FF78617A68A5
:10170C00B9687869FFF790FF024697F90F301146D8
:10171C001846FFF75FFF00BF1837BD4680BD80B588
:10172C0082B000AF0346FB7197F907301846FFF7FC
:10173C0035FF00BF0837BD4680BD80B582B000AF15
:10174C0078607868FFF7A2FF034618460837BD4655
:10175C0080BD000080B48BB000AF7860396000238E
:10176C007B6200233B6248E101227B6A02FA03F3AD
:10177C00FB613B681B68FA691340BB61BA69FB6982
:10178C009A4240F037813B685B68A34A93425ED033
:10179C00A14A934275D8A14A934258D09F4A93428A
:1017AC006FD89F4A934252D09D4A934269D89D4A22
:1017BC0093424CD09B4A934263D89B4A934246D067
:1017CC00994A93425DD8122B2AD8122B59D801A2D0
:1017DC0052F823F05B180008351800084718000869
:1017EC00891800088F1800088F1800088F18000837
:1017FC008F1800088F1800088F1800088F18000821
:10180C008F1800088F1800088F1800088F18000810
:10181C008F1800088F1800083D1800085118000890
:10182C00824A934213D02CE03B68DB683B6229E090
:10183C003B68DB6804333B6224E03B68DB680833BD
:10184C003B621FE03B68DB680C333B621AE03B6891
:10185C009B68002B02D104233B6213E03B689B681E
:10186C00012B05D108233B627B68FA691A6109E0F8
:10187C0008233B627B68FA695A6103E000233B62F0
:10188C0000E000BFBB69FF2B01D87B6801E07B68DF
:10189C0004337B61BB69FF2B02D87B6A9B0002E09F
:1018AC007B6A083B9B003B617B691A680F213B6993
:1018BC0001FA03F3DB431A40396A3B6901FA03F37B
:1018CC001A437B691A603B685B6803F08053002BFA
:1018DC0000F09080564B9B69554A43F0010393618D
:1018EC00534B9B6903F00103BB60BB68514A7B6A95
:1018FC009B08023352F82330FB607B6A03F003032E
:10190C009B000F2202FA03F3DB43FA681340FB60DF
:10191C007B68494A93420DD07B68484A934207D072
:10192C007B68474A934201D1022304E0032302E07F
:10193C00012300E000237A6A02F003029200934034
:10194C00FA681343FB603B497B6A9B080233FA68D5
:10195C0041F823203B685B6803F48013002B06D00E
:10196C00384B9A683749BB6913438B6006E0354B9B
:10197C009A68BB69DB43334913408B603B685B68F7
:10198C0003F40013002B06D02E4BDA682D49BB69EB
:10199C001343CB6006E02B4BDA68BB69DB43294968
:1019AC001340CB603B685B6803F40033002B06D01C
:1019BC00244B5A682349BB6913434B6006E0214B07
:1019CC005A68BB69DB431F4913404B603B685B683B
:1019DC0003F48033002B06D01A4B1A681949BB69E3
:1019EC0013430B6006E0174B1A68BB69DB431549C0
:1019FC0013400B607B6A01337B623B681A687B6A1D
:101A0C0022FA03F3002B7FF4AFAE00BF00BF2C37DC
:101A1C00BD4680BC704700BF000032100000311082
:101A2C000000221000002110000012100000111004
:101A3C00001002400000014000080140000C014071
:101A4C00001001400004014080B485B000AF786004
:101A5C000B467B807B689A687B881340002B02D0F6
:101A6C000123FB7301E00023FB73FB7B1846143747
:101A7C00BD4680BC704780B483B000AF78600B4625
:101A8C007B8013467B707B78002B03D07A887B6835
:101A9C001A6103E07B881A047B681A6100BF0C375B
:101AAC00BD4680BC704780B485B000AF78600B46F3
:101ABC007B807B68DB68FB607A88FB6813401A04C8
:101ACC00FB68D9437B880B401A437B681A6100BFC3
:101ADC001437BD4680BC704780B586B000AF7860C7
:101AEC007B68002B01D101236CE27B681B6803F03F
:101AFC000103002B00F08780924B5B6803F00C0312
:101B0C00042B0CD08F4B5B6803F00C03082B12D109
:101B1C008C4B5B6803F48033B3F5803F0BD1894B5E
:101B2C001B6803F40033002B6CD07B685B68002BC4
:101B3C0068D1012346E27B685B68B3F5803F06D130
:101B4C00804B1B687F4A43F4803313602EE07B6824
:101B5C005B68002B0CD17B4B1B687A4A23F48033D7
:101B6C001360784B1B68774A23F4802313601DE0C5
:101B7C007B685B68B3F5A02F0CD1724B1B68714A64
:101B8C0043F4802313606F4B1B686E4A43F480331D
:101B9C0013600BE06B4B1B686A4A23F480331360B1
:101BAC00684B1B68674A23F4802313607B685B686F
:101BBC00002B13D0FFF7B6FC386108E0FFF7B2FC3E
:101BCC0002463B69D31A642B01D90323FAE15D4B1E
:101BDC001B6803F40033002BF0D014E0FFF7A2FCD9
:101BEC00386108E0FFF79EFC02463B69D31A642B70
:101BFC0001D90323E6E1534B1B6803F40033002B9C
:101C0C00F0D100E000BF7B681B6803F00203002BDF
:101C1C0063D04C4B5B6803F00C03002B0BD0494B8F
:101C2C005B6803F00C03082B1CD1464B5B6803F478
:101C3C008033002B16D1434B1B6803F00203002B9F
:101C4C0005D07B681B69012B01D00123BAE13D4B08
:101C5C001B6823F0F8027B685B69DB00394913438E
:101C6C000B603AE07B681B69002B20D0364B0122BD
:101C7C001A60FFF757FC386108E0FFF753FC024687
:101C8C003B69D31A022B01D903239BE12D4B1B6813
:101C9C0003F00203002BF0D02A4B1B6823F0F80250
:101CAC007B685B69DB00274913430B6015E0264B0F
:101CBC0000221A60FFF736FC386108E0FFF732FCAF
:101CCC0002463B69D31A022B01D903237AE11D4B3F
:101CDC001B6803F00203002BF0D17B681B6803F038
:101CEC000803002B3AD07B689B69002B19D0174B4B
:101CFC0001221A60FFF716FC386108E0FFF712FCAE
:101D0C0002463B69D31A022B01D903235AE10D4B2E
:101D1C005B6A03F00203002BF0D0012000F09AFA6A
:101D2C001CE00A4B00221A60FFF7FCFB38610FE045
:101D3C00FFF7F8FB02463B69D31A022B08D90323A1
:101D4C0040E100BF001002400000424280044242C9
:101D5C009E4B5B6A03F00203002BE9D17B681B6886
:101D6C0003F00403002B00F0A6800023FB75974BB7
:101D7C00DB6903F08053002B0DD1944BDB69934A44
:101D8C0043F08053D361914BDB6903F08053BB600C
:101D9C00BB680123FB758E4B1B6803F48073002B0F
:101DAC0018D18B4B1B688A4A43F480731360FFF77E
:101DBC00B9FB386108E0FFF7B5FB02463B69D31A63
:101DCC00642B01D90323FDE0814B1B6803F4807362
:101DDC00002BF0D07B68DB68012B06D17B4B1B6A98
:101DEC007A4A43F0010313622DE07B68DB68002B19
:101DFC000CD1764B1B6A754A23F001031362734BAB
:101E0C001B6A724A23F0040313621CE07B68DB68D4
:101E1C00052B0CD16D4B1B6A6C4A43F00403136207
:101E2C006A4B1B6A694A43F0010313620BE0674B70
:101E3C001B6A664A23F001031362644B1B6A634AF4
:101E4C0023F0040313627B68DB68002B15D0FFF7CB
:101E5C0069FB38610AE0FFF765FB02463B69D31A60
:101E6C0041F28832934201D90323ABE0574B1B6AF2
:101E7C0003F00203002BEED014E0FFF753FB3861A4
:101E8C000AE0FFF74FFB02463B69D31A41F2883256
:101E9C00934201D9032395E04C4B1B6A03F00203D8
:101EAC00002BEED1FB7D012B05D1484BDB69474A5A
:101EBC0023F08053D3617B68DB69002B00F08180B9
:101ECC00424B5B6803F00C03082B61D07B68DB6929
:101EDC00022B46D13F4B00221A60FFF723FB3861DF
:101EEC0008E0FFF71FFB02463B69D31A022B01D90E
:101EFC00032367E0354B1B6803F00073002BF0D114
:101F0C007B681B6AB3F5803F08D1304B5B6823F4C8
:101F1C0000327B689B682D4913434B602B4B5B68ED
:101F2C0023F474127B68196A7B685B6A0B4327493C
:101F3C0013434B60274B01221A60FFF7F3FA386109
:101F4C0008E0FFF7EFFA02463B69D31A022B01D9DE
:101F5C00032337E01D4B1B6803F00073002BF0D0FC
:101F6C002FE01C4B00221A60FFF7DCFA386108E006
:101F7C00FFF7D8FA02463B69D31A022B01D9032387
:101F8C0020E0124B1B6803F00073002BF0D118E01B
:101F9C007B68DB69012B01D1012313E00B4B5B68E0
:101FAC00FB60FB6803F480327B681B6A9A4206D1A3
:101FBC00FB6803F470127B685B6A9A4201D00123C0
:101FCC0000E0002318461837BD4680BD00100240C3
:101FDC00007000406000424280B584B000AF786071
:101FEC0039607B68002B01D10123D0E06A4B1B6860
:101FFC0003F007033A689A4210D9674B1B6823F029
:10200C00070265493B6813430B60634B1B6803F085
:10201C0007033A689A4201D00123B8E07B681B6839
:10202C0003F00203002B20D07B681B6803F0040331
:10203C00002B05D0594B5B68584A43F4E06353605E
:10204C007B681B6803F00803002B05D0534B5B68BF
:10205C00524A43F460535360504B5B6823F0F002D8
:10206C007B689B684D4913434B607B681B6803F08E
:10207C000103002B40D07B685B68012B07D1474BD9
:10208C001B6803F40033002B15D101237FE07B6820
:10209C005B68022B07D1414B1B6803F00073002BCC
:1020AC0009D1012373E03D4B1B6803F00203002BA5
:1020BC0001D101236BE0394B5B6823F003027B6891
:1020CC005B68364913434B60FFF72CFAF8600AE063
:1020DC00FFF728FA0246FB68D31A41F28832934282
:1020EC0001D9032353E02D4B5B6803F00C027B6892
:1020FC005B689B009A42EBD1274B1B6803F00703EC
:10210C003A689A4210D2244B1B6823F007022249EA
:10211C003B6813430B60204B1B6803F007033A68C2
:10212C009A4201D0012332E07B681B6803F0040360
:10213C00002B08D0194B5B6823F4E0627B68DB68EA
:10214C00164913434B607B681B6803F00803002B94
:10215C0009D0124B5B6823F460527B681B69DB006F
:10216C000E4913434B6000F021F802460B4B5B68A1
:10217C001B0903F00F030A49CB5C22FA03F3094A4B
:10218C001360094B1B681846FFF78AF900231846A1
:10219C001037BD4680BD00BF002002400010024039
:1021AC00E02A0008680000206C00002080B487B092
:1021BC0000AF0023FB600023BB6000237B61002386
:1021CC007B6000233B611E4B5B68FB60FB6803F08C
:1021DC000C03042B02D0082B03D027E0194B3B61D6
:1021EC0027E0FB689B0C03F00F03174AD35C7B6062
:1021FC00FB6803F48033002B10D0114B5B685B0C35
:10220C0003F00103114AD35CBB607B680D4A02FBEF
:10221C0003F2BB68B2FBF3F37B6104E07B680C4A0E
:10222C0002FB03F37B617B693B6102E0054B3B6185
:10223C0000BF3B6918461C37BD4680BC704700BFC9
:10224C000010024000127A00F02A0008002B00084F
:10225C0000093D0080B485B000AF78600A4B1B6864
:10226C000A4AA2FB03235B0A7A6802FB03F3FB60B6
:10227C0000BFFB685A1EFA60002BF9D100BF00BFEB
:10228C001437BD4680BC704768000020D34D6210E7
:10229C0080B582B000AF78607B68002B01D1012340
:1022AC0041E07B6893F83D30DBB2002B06D17B68B4
:1022BC00002283F83C207868FFF75AF87B680222EA
:1022CC0083F83D207B681A687B68043319461046F6
:1022DC0000F06EFA7B68012283F846207B680122AD
:1022EC0083F83E207B68012283F83F207B68012223
:1022FC0083F840207B68012283F841207B6801220F
:10230C0083F842207B68012283F843207B680122FA
:10231C0083F844207B68012283F845207B680122E6
:10232C0083F83D20002318460837BD4680BD0000C9
:10233C0080B485B000AF78607B6893F83D30DBB239
:10234C00012B01D0012335E07B68022283F83D206C
:10235C007B681B68DA687B681B6842F00102DA60F4
:10236C007B681B68164A934209D07B681B68B3F1E3
:10237C00804F04D07B681B68124A934211D17B6852
:10238C001B689B6803F00703FB60FB68062B10D0EF
:10239C007B681B681A687B681B6842F001021A6034
:1023AC0007E07B681B681A687B681B6842F00102B7
:1023BC001A60002318461437BD4680BC704700BF16
:1023CC00002C01400004004080B582B000AF786062
:1023DC007B681B681B6903F00203022B22D17B680C
:1023EC001B68DB6803F00203022B1BD17B681B68A4
:1023FC006FF002021A617B6801221A777B681B68F6
:10240C009B6903F00303002B03D0786800F0B4F948
:10241C0005E0786800F0A7F9786800F0B6F97B68F9
:10242C0000221A777B681B681B6903F00403042BDA
:10243C0022D17B681B68DB6803F00403042B1BD1DF
:10244C007B681B686FF004021A617B6802221A77A2
:10245C007B681B689B6903F44073002B03D078687E
:10246C0000F08AF905E0786800F07DF9786800F0F2
:10247C008CF97B6800221A777B681B681B6903F058
:10248C000803082B22D17B681B68DB6803F0080368
:10249C00082B1BD17B681B686FF008021A617B68E4
:1024AC0004221A777B681B68DB6903F00303002B9B
:1024BC0003D0786800F060F905E0786800F053F913
:1024CC00786800F062F97B6800221A777B681B68D9
:1024DC001B6903F01003102B22D17B681B68DB688F
:1024EC0003F01003102B1BD17B681B686FF01002DC
:1024FC001A617B6808221A777B681B68DB6903F416
:10250C004073002B03D0786800F036F905E078684A
:10251C0000F029F9786800F038F97B6800221A7706
:10252C007B681B681B6903F00103012B0ED17B68D0
:10253C001B68DB6803F00103012B07D17B681B6868
:10254C006FF001021A617868FEF708FE7B681B6861
:10255C001B6903F08003802B0ED17B681B68DB6842
:10256C0003F08003802B07D17B681B686FF080021F
:10257C001A61786800F06BFA7B681B681B6903F0C2
:10258C004003402B0ED17B681B68DB6803F04003D3
:10259C00402B07D17B681B686FF040021A6178688A
:1025AC0000F0FCF87B681B681B6903F02003202BF0
:1025BC000ED17B681B68DB6803F02003202B07D14E
:1025CC007B681B686FF020021A61786800F036FA9D
:1025DC0000BF0837BD4680BD80B584B000AF7860C1
:1025EC0039600023FB737B6893F83C30012B01D1DD
:1025FC000223B4E07B68012283F83C207B68022232
:10260C0083F83D207B681B689B68BB60BB6823F02C
:10261C007703BB60BB6823F47F43BB607B681B689C
:10262C00BA689A603B681B68B3F5005F3ED0B3F59F
:10263C00005F00F28780B3F5805F00F08680B3F511
:10264C00805F7FD8702B1AD0702B7BD8602B50D02A
:10265C00602B77D8502B3CD0502B73D8402B58D0B4
:10266C00402B6FD8302B64D0302B6BD8202B60D004
:10267C00202B67D8002B5CD0102B5AD062E07B68E3
:10268C0018683B6899683B685A683B68DB6800F0DF
:10269C005EF97B681B689B68BB60BB6843F0770383
:1026AC00BB607B681B68BA689A604FE07B681868EF
:1026BC003B6899683B685A683B68DB6800F047F9EF
:1026CC007B681B689A687B681B6842F480429A603E
:1026DC003CE07B6818683B6859683B68DB681A46C5
:1026EC0000F0BEF87B681B685021184600F015F905
:1026FC002CE07B6818683B6859683B68DB681A46B5
:10270C0000F0DCF87B681B686021184600F005F9C6
:10271C001CE07B6818683B6859683B68DB681A46A4
:10272C0000F09EF87B681B684021184600F0F5F815
:10273C000CE07B681A683B681B681946104600F071
:10274C00ECF803E00123FB7300E000BF7B6801227F
:10275C0083F83D207B68002283F83C20FB7B1846E5
:10276C001037BD4680BD80B483B000AF786000BF29
:10277C000C37BD4680BC704780B483B000AF786026
:10278C0000BF0C37BD4680BC704780B483B000AF2F
:10279C00786000BF0C37BD4680BC704780B483B0F6
:1027AC0000AF786000BF0C37BD4680BC704700009E
:1027BC0080B485B000AF786039607B681B68FB60C3
:1027CC007B68254A934207D07B68B3F1804F03D0D6
:1027DC007B68224A934208D1FB6823F07003FB60AC
:1027EC003B685B68FA681343FB607B681A4A934248
:1027FC0007D07B68B3F1804F03D07B68174A9342B4
:10280C0008D1FB6823F44073FB603B68DB68FA6813
:10281C001343FB60FB6823F080023B685B69134346
:10282C00FB607B68FA681A603B689A687B68DA62BE
:10283C003B681A687B689A627B68074A934203D1AB
:10284C003B681A697B681A637B6801225A6100BF76
:10285C001437BD4680BC7047002C0140000400407A
:10286C0080B487B000AFF860B9607A60FB681B6A0F
:10287C007B61FB681B6A23F00102FB681A62FB6830
:10288C009B693B613B6923F0F0033B617B681B0157
:10289C003A6913433B617B6923F00A037B617A69D4
:1028AC00BB6813437B61FB683A699A61FB687A6980
:1028BC001A6200BF1C37BD4680BC704780B487B01D
:1028CC0000AFF860B9607A60FB681B6A7B61FB68DB
:1028DC001B6A23F01002FB681A62FB689B693B6160
:1028EC003B6923F470433B617B681B033A691343D8
:1028FC003B617B6923F0A0037B61BB681B017A6998
:10290C0013437B61FB683A699A61FB687A691A62C6
:10291C0000BF1C37BD4680BC704780B485B000AF8B
:10292C00786039607B689B68FB60FB6823F0700300
:10293C00FB603A68FB68134343F00703FB607B685A
:10294C00FA689A6000BF1437BD4680BC704780B4EB
:10295C0087B000AFF860B9607A603B60FB689B6839
:10296C007B617B6923F47F437B613B681A027B6844
:10297C001A43BB6813437A6913437B61FB687A691A
:10298C009A6000BF1C37BD4680BC704780B485B0D0
:10299C0000AF786039607B6893F83C30012B01D133
:1029AC00022341E07B68012283F83C207B680222F1
:1029BC0083F83D207B681B685B68FB607B681B6849
:1029CC009B68BB60FB6823F07003FB603B681B6873
:1029DC00FA681343FB607B681B68FA685A607B6873
:1029EC001B68144A934209D07B681B68B3F1804F73
:1029FC0004D07B681B68104A93420CD1BB6823F04F
:102A0C008003BB603B685B68BA681343BB607B6840
:102A1C001B68BA689A607B68012283F83D207B684A
:102A2C00002283F83C20002318461437BD4680BC96
:102A3C00704700BF002C01400004004080B483B0FC
:102A4C0000AF786000BF0C37BD4680BC704780B4C7
:102A5C0083B000AF786000BF0C37BD4680BC7047B8
:102A6C0070B500260C4D0D4C641BA410A64209D168
:102A7C0000F022F800260A4D0A4C641BA410A64252
:102A8C0005D170BD55F8043B98470136EEE755F873
:102A9C00043B98470136F2E7042B0008042B00088E
:102AAC00042B0008082B000803460244934200D173
:102ABC00704703F8011BF9E7F8B500BFF8BC08BC78
:102ACC009E467047F8B500BFF8BC08BC9E467047E0
:102ADC0004000000000000000000000001020304DC
:102AEC000607080902030405060708090A0B0C0D62
:082AFC000E0F10100102000092
:042B04003101000893
:042B08000D010008B3
:102B0C0001000000010000000100000001000000B5
:102B1C0001000000010000000100000001000000A5
:102B2C000100000001000000010000000100000095
:102B3C00C8000000050000000300000000000000B9
:102B4C000500000000000000030000000100000070
:102B5C0088130000B80B0000D00700008813000099
:102B6C00B80B0000D00700000024F4001000000097
:042B7C000100000054
:0400000508001435A6
:00000001FF
