:020000040800F2
:10000000002800204D0D0008DD0C0008E30C00085E
:10001000E90C0008EF0C0008F50C000800000000D7
:10002000000000000000000000000000FB0C0008C1
:10003000070D000800000000130D00081F0D000848
:10004000950D0008950D0008950D0008950D000808
:10005000950D0008950D0008950D0008950D0008F8
:10006000950D0008950D0008950D0008950D0008E8
:10007000950D0008950D0008950D0008950D0008D8
:10008000950D0008950D0008950D0008950D0008C8
:10009000950D0008950D0008950D0008950D0008B8
:1000A000950D0008950D0008950D0008950D0008A8
:1000B0002D0D0008950D000800000000950D0008AA
:1000C000950D00080000000000000000950D0008DC
:1000D00000000000950D0008950D000800000000CC
:1000E000950D0008950D0008950D00080000000012
:1000F0000000000000000000000000000000000000
:0C01000000000000000000005FF808F1A3
:10010C0010B5054C237833B9044B13B10448AFF345
:10011C0000800123237010BD280000200000000087
:10012C007C23000808B5034B1BB103490348AFF30C
:10013C00008008BD000000002C0000207C2300087B
:10014C0080B400AF064B1B68012B04D1044B00227A
:10015C001A60012300E000231846BD4680BC70479E
:10016C004400002080B500AF8C4B1B68012B20D1C4
:10017C008B4B1A688B4B1B689A4217DAFA2000F0EB
:10018C00C3FC874B1B68884A52F82330184600F092
:10019C001BF9834B1B68184600F0A4FA00F0DEFA3A
:1001AC007F4B1B6801337E4A136002E07C4B0022BC
:1001BC001A607E4B1B68012B4FD17D4B1B68013B9A
:1001CC007B4A13607B4B1B68013B7A4A1360794B6B
:1001DC001B68002B06DC764B1B68002B02DD754B75
:1001EC0002221A60724B1B68002B10DC714B1B68CF
:1001FC00002B0CDC704B1B68002B08D16E4B0122C2
:10020C001A606B4B03221A606A4B05221A60684B0A
:10021C001B68002B06DC674B1B68002B02DD644B54
:10022C0002221A60624B1B68002B10DC614B1B68AE
:10023C00002B0CDC604B1B68012B08D15E4B0022A1
:10024C001A605B4B05221A605A4B03221A6000F0AD
:10025C0085FA4FF47A7000F073FC584B1B68013B25
:10026C00042B00F28F8001A252F823F08D020008BB
:10027C00A1020008F9020008250300086503000824
:10028C0000F0C2FA4D4B02221A6040F6B83000F072
:10029C001FFC80E001221021494801F061F8012285
:1002AC000421474801F05CF800220221444801F087
:1002BC0057F800224021424801F052F8414B1B688C
:1002CC00012B06D14FF4FA6000F002FC3B4B0322E9
:1002DC001A60FFF735FF0346012B55D1374B162219
:1002EC001A6042F2107000F0F3FB4DE00122402145
:1002FC00334801F035F800222021314801F030F864
:10030C00304B1B68012B41D140F6B83000F0E0FBBC
:10031C002A4B04221A6039E001220221284801F0FC
:10032C001FF801222021264801F01AF8002208218A
:10033C00234801F015F800221021214801F010F893
:10034C00204B1B68012B23D14FF4FA6000F0C0FB4B
:10035C001A4B05221A601BE001220821184800F0F4
:10036C00FFFF00220421164800F0FAFF154B1B6812
:10037C00012B0FD140F6B83000F0AAFB0F4B022234
:10038C001A6007E000BF06E000BF04E000BF02E017
:10039C0000BF00E000BF00BF80BD00BF5C000020BC
:1003AC004C000020942300080C0000206400002066
:1003BC00040000200800002048000020000000205D
:1003CC00000801405400002080B582B000AF786076
:1003DC007B68092B00F2808101A252F823F000BF48
:1003EC00150400085D040008A5040008ED040008CD
:1003FC00350500087D050008C50500080D06000838
:10040C00550600089D06000800220121B44800F0A2
:10041C00A7FF00220221B24800F0A2FF0022042113
:10042C00AF4800F09DFF00220821AD4800F098FF76
:10043C0000221021AA4800F093FF00222021A84896
:10044C0000F08EFF01224021A54800F089FF43E116
:10045C0001220121A24800F083FF00220221A048C2
:10046C0000F07EFF002204219D4800F079FF01225C
:10047C0008219B4800F074FF01221021984800F0DD
:10048C006FFF01222021964800F06AFF01224021D3
:10049C00934800F065FF1FE100220121904800F015
:1004AC005FFF002202218E4800F05AFF0122042136
:1004BC008B4800F055FF00220821894800F050FFBE
:1004CC0000221021864800F04BFF01222021844895
:1004DC0000F046FF00224021814800F041FFFBE084
:1004EC00002201217E4800F03BFF002202217C48C3
:1004FC0000F036FF00220421794800F031FF002281
:10050C000821774800F02CFF01221021744800F0DC
:10051C0027FF01222021724800F022FF00224021F7
:10052C006F4800F01DFFD7E0012201216C4800F05C
:10053C0017FF002202216A4800F012FF002204215A
:10054C00674800F00DFF01220821654800F008FF04
:10055C0001221021624800F003FF00222021604894
:10056C0000F0FEFE002240215D4800F0F9FEB3E0F1
:10057C00002201215A4800F0F3FE012202215848C2
:10058C0000F0EEFE00220421554800F0E9FE0022A6
:10059C000821534800F0E4FE01221021504800F0DD
:1005AC00DFFE002220214E4800F0DAFE002240211E
:1005BC004B4800F0D5FE8FE000220121484800F0A6
:1005CC00CFFE01220221464800F0CAFE002204217F
:1005DC00434800F0C5FE00220821414800F0C0FE4F
:1005EC00002210213E4800F0BBFE002220213C4896
:1005FC0000F0B6FE00224021394800F0B1FE6BE05D
:10060C0000220121364800F0ABFE002202213448C2
:10061C0000F0A6FE00220421314800F0A1FE0122C8
:10062C0008212F4800F09CFE012210212C4800F0DC
:10063C0097FE012220212A4800F092FE012240213F
:10064C00274800F08DFE47E000220121244800F0ED
:10065C0087FE00220221224800F082FE00220421A3
:10066C001F4800F07DFE002208211D4800F078FE96
:10067C00002210211A4800F073FE00222021184895
:10068C0000F06EFE00224021154800F069FE23E0C8
:10069C0000220121124800F063FE002202211048C2
:1006AC0000F05EFE002204210D4800F059FE0022ED
:1006BC0008210B4800F054FE01221021084800F0DC
:1006CC004FFE00222021064800F04AFE0022402165
:1006DC00034800F045FE00BF00BF0837BD4680BD93
:1006EC00000C014080B582B000AF78607B68032BB2
:1006FC002DD801A252F823F0150700082507000891
:10070C00370700084907000800F0A2F800228021F2
:10071C00114800F025FE1AE000F09AF800224FF480
:10072C0080710D4800F01CFE11E000F091F80022E1
:10073C004FF40071084800F013FE08E000F088F850
:10074C0000224FF48061044800F00AFE00BF00BF95
:10075C000837BD4680BD00BF0008014080B400AF23
:10076C00254B1B68254A82FB03129210DB17D31A08
:10077C00234A1360204B1968204B83FB01239A10EA
:10078C00CB17D21A13469B0013445B00CA1A1C4B9E
:10079C005A601C4B1B68194A82FB03129210DB1720
:1007AC00D31A174A9360174B1968144B83FB012318
:1007BC009A10CB17D21A13469B0013445B00CA1A2B
:1007CC000F4BDA600C4B1B68092B06DC0C4B002220
:1007DC001A60094B1B680A4A53600A4B1B68092BA9
:1007EC0006DC074B00229A60064B1B68044AD36058
:1007FC0000BFBD4680BC704704000020676666667B
:10080C000C0000200800002080B500AF012202215E
:10081C000E4800F0A5FD012204210C4800F0A0FDBB
:10082C0001220821094800F09BFD012210210748F4
:10083C0000F096FD01222021044800F091FD0122D8
:10084C004021024800F08CFD00BF80BD0008014033
:10085C0080B500AF012280210B4800F081FD012200
:10086C004FF48071084800F07BFD01224FF40071B9
:10087C00054800F075FD01224FF48061024800F03C
:10088C006FFD00BF80BD00BF0008014080B500AF08
:10089C0000F07CFA00F022F800F05CF800F0A6F80A
:1008AC000A4801F0A1F90A4B01221A60094B0522F2
:1008BC001A60094B03221A60FA2000F025F94FF454
:1008CC007A7000F03DF9FFF74DFCFCE7700000205A
:1008DC0000000020040000200800002080B590B02B
:1008EC0000AF07F1180328220021184601F038FD4B
:1008FC003B1D00221A605A609A60DA601A6102236A
:10090C00BB610123BB621023FB6200237B6307F1F5
:10091C001803184600F03CFD0346002B01D000F0F4
:10092C00D1F80F237B600023BB600023FB60002306
:10093C003B6100237B613B1D0021184600F0A8FFA2
:10094C000346002B01D000F0BDF800BF4037BD4678
:10095C0080BD000080B586B000AF07F1080300220F
:10096C001A605A609A60DA603B4600221A605A603C
:10097C001D4B4FF080421A601B4B41F63F725A6080
:10098C00194B00229A60184B0922DA60164B002290
:10099C001A61154B00229A61134801F0D5F80346F1
:1009AC00002B01D000F08EF84FF48053BB6007F1A0
:1009BC00080319460C4801F06BFA0346002B01D0D2
:1009CC0000F080F800233B6000237B603B46194617
:1009DC00054801F037FC0346002B01D000F072F8FB
:1009EC0000BF1837BD4680BD7000002080B586B0B2
:1009FC0000AF07F1080300221A605A609A60DA60AF
:100A0C00284B9B69274A43F004039361254B9B6950
:100A1C0003F004037B607B68224B9B69214A43F003
:100A2C00080393611F4B9B6903F008033B603B6811
:100A3C00002240F2FE711C4800F092FC00227F2143
:100A4C001A4800F08DFC40F2FE73BB600123FB6082
:100A5C0000233B6102237B6107F10803194612480E
:100A6C0000F004FB7F23BB600123FB6000233B6190
:100A7C0002237B6107F1080319460C4800F0F6FAD3
:100A8C004FF4E063BB600023FB6001233B6107F183
:100A9C0008031946054800F0E9FA00BF1837BD46AF
:100AAC0080BD00BF0010024000080140000C014056
:100ABC0080B582B000AF786000F05EF800BF0837F8
:100ACC00BD4680BD80B400AF72B600BFFEE700002B
:100ADC0080B483B000AF78607B68084A82FB031255
:100AEC009210DB17D31A064A1360064B00221A60C9
:100AFC0000BF0C37BD4680BC704700BF676666669A
:100B0C00500000205400002080B483B000AF786007
:100B1C007B68084A82FB03129210DB17D31A064A31
:100B2C001360064B00221A6000BF0C37BD4680BC18
:100B3C00704700BF67666666580000205C000020A6
:100B4C0080B483B000AF78607B68084A82FB0312E4
:100B5C009210DB17D31A064A1360064B00221A6058
:100B6C0000BF0C37BD4680BC704700BF6766666629
:100B7C00600000206400002080B400AF214B1B6893
:100B8C00002B0BDD1F4B1B68013B1E4A13601D4BDA
:100B9C001B68002B02DC1C4B01221A601B4B1B68D0
:100BAC00002B0BDD194B1B68013B184A1360174BCC
:100BBC001B68002B02DC164B01221A60154B1B68BC
:100BCC00002B0BDD134B1B68013B124A1360114BBE
:100BDC001B68002B02DC104B01221A600F4B1B68A8
:100BEC00002B0BDD0D4B1B68013B0C4A13600B4BB0
:100BFC001B68002B02DC0A4B01221A6000BFBD46A9
:100C0C0080BC704750000020540000205800002089
:100C1C005C000020600000206400002068000020C0
:100C2C006C00002080B485B000AF154B9B69144A52
:100C3C0043F001039361124B9B6903F00103BB600A
:100C4C00BB680F4BDB690E4A43F08053D3610C4BEE
:100C5C00DB6903F080537B607B680A4B5B68FB604D
:100C6C00FB6823F0E063FB60FB6843F08063FB6090
:100C7C00044AFB68536000BF1437BD4680BC704704
:100C8C00001002400000014080B584B000AF7860D5
:100C9C007B681B68B3F1804F13D10C4BDB690B4A9B
:100CAC0043F00103D361094BDB6903F00103FB60E3
:100CBC00FB68002200211C2000F0A1F91C2000F090
:100CCC00BAF900BF1037BD4680BD00BF001002400E
:100CDC0080B400AFFEE780B400AFFEE780B400AF95
:100CEC00FEE780B400AFFEE780B400AFFEE780B44F
:100CFC0000AF00BFBD4680BC704780B400AF00BFE2
:100D0C00BD4680BC704780B400AF00BFBD4680BC00
:100D1C00704780B500AF00F07FF800BF80BD0000C9
:100D2C0080B500AF024800F0ABFF00BF80BD00BF34
:100D3C007000002080B400AF00BFBD4680BC70477F
:100D4C00FFF7F8FF0B480C490C4A002302E0D4587B
:100D5C00C4500433C4188C42F9D3094A094C0023FB
:100D6C0001E013600432A242FBD301F0D5FAFFF785
:100D7C008DFD70470000002028000020C4230008CF
:100D8C0028000020BC000020FEE7000080B500AF6A
:100D9C00084B1B68074A43F010031360032000F054
:100DAC0023F90F2000F008F8FFF73CFF002318464A
:100DBC0080BD00BF0020024080B582B000AF7860DB
:100DCC00124B1A68124B1B7819464FF47A73B3FB0B
:100DDC00F1F3B2FBF3F3184600F03BF90346002B9A
:100DEC0001D001230EE07B680F2B0AD80022796812
:100DFC004FF0FF3000F003F9064A7B6813600023C4
:100E0C0000E0012318460837BD4680BD1C000020B9
:100E1C00240000202000002080B400AF054B1B787C
:100E2C001A46054B1B681344034A136000BFBD46AA
:100E3C0080BC704724000020B800002080B400AFB4
:100E4C00024B1B681846BD4680BC7047B80000209A
:100E5C0080B485B000AF78607B6803F00703FB605B
:100E6C000C4BDB68BB60BA684FF6FF031340BB60EA
:100E7C00FB681A02BB68134343F0BF6343F40033AF
:100E8C00BB60044ABB68D36000BF1437BD4680BC4E
:100E9C00704700BF00ED00E080B400AF044BDB688E
:100EAC001B0A03F007031846BD4680BC704700BF01
:100EBC0000ED00E080B483B000AF0346FB7197F9FE
:100ECC000730002B0BDBFB7903F01F02064997F967
:100EDC0007305B09012000FA02F241F8232000BF21
:100EEC000C37BD4680BC704700E100E080B483B095
:100EFC0000AF03463960FB7197F90730002B0ADB12
:100F0C003B68DAB20C4997F907301201D2B20B44A4
:100F1C0083F800230AE03B68DAB20849FB7903F056
:100F2C000F03043B1201D2B20B441A7600BF0C37EC
:100F3C00BD4680BC704700BF00E100E000ED00E062
:100F4C0080B489B000AFF860B9607A60FB6803F0D8
:100F5C000703FB61FB69C3F10703042B28BF0423C0
:100F6C00BB61FB690433062B02D9FB69033B00E030
:100F7C0000237B614FF0FF32BB6902FA03F3DA43C3
:100F8C00BB681A407B699A404FF0FF317B6901FACC
:100F9C0003F3D9437B680B40134318462437BD46F3
:100FAC0080BC704780B582B000AF78607B68013B35
:100FBC00B3F1807F01D301230FE00A4A7B68013B28
:100FCC0053600F214FF0FF30FFF790FF054B0022CD
:100FDC009A60044B07221A60002318460837BD4656
:100FEC0080BD00BF10E000E080B582B000AF78603B
:100FFC007868FFF72DFF00BF0837BD4680BD80B570
:10100C0086B000AF0346B9607A60FB7300237B6146
:10101C00FFF742FF78617A68B9687869FFF790FF4B
:10102C00024697F90F3011461846FFF75FFF00BFD5
:10103C001837BD4680BD80B582B000AF0346FB714A
:10104C0097F907301846FFF735FF00BF0837BD4644
:10105C0080BD80B582B000AF78607868FFF7A2FFE2
:10106C00034618460837BD4680BD000080B48BB0DF
:10107C0000AF7860396000237B6200233B6248E15B
:10108C0001227B6A02FA03F3FB613B681B68FA6975
:10109C001340BB61BA69FB699A4240F037813B68E7
:1010AC005B68A34A93425ED0A14A934275D8A14A89
:1010BC00934258D09F4A93426FD89F4A934252D042
:1010CC009D4A934269D89D4A93424CD09B4A934285
:1010DC0063D89B4A934246D0994A93425DD8122BCF
:1010EC002AD8122B59D801A252F823F073110008F8
:1010FC004D1100085F110008A1110008A71100088C
:10110C00A7110008A7110008A7110008A7110008D3
:10111C00A7110008A7110008A7110008A7110008C3
:10112C00A7110008A7110008A7110008A7110008B3
:10113C005511000869110008824A934213D02CE023
:10114C003B68DB683B6229E03B68DB6804333B624D
:10115C0024E03B68DB6808333B621FE03B68DB68DC
:10116C000C333B621AE03B689B68002B02D10423D2
:10117C003B6213E03B689B68012B05D108233B6263
:10118C007B68FA691A6109E008233B627B68FA699B
:10119C005A6103E000233B6200E000BFBB69FF2BF8
:1011AC0001D87B6801E07B6804337B61BB69FF2B52
:1011BC0002D87B6A9B0002E07B6A083B9B003B6188
:1011CC007B691A680F213B6901FA03F3DB431A4070
:1011DC00396A3B6901FA03F31A437B691A603B686D
:1011EC005B6803F08053002B00F09080564B9B699A
:1011FC00554A43F001039361534B9B6903F0010380
:10120C00BB60BB68514A7B6A9B08023352F823309F
:10121C00FB607B6A03F003039B000F2202FA03F3CB
:10122C00DB43FA681340FB607B68494A93420DD05C
:10123C007B68484A934207D07B68474A934201D166
:10124C00022304E0032302E0012300E000237A6A76
:10125C0002F0030292009340FA681343FB603B498F
:10126C007B6A9B080233FA6841F823203B685B6871
:10127C0003F48013002B06D0384B9A683749BB69AE
:10128C0013438B6006E0354B9A68BB69DB433349EB
:10129C0013408B603B685B6803F40013002B06D093
:1012AC002E4BDA682D49BB691343CB6006E02B4B00
:1012BC00DA68BB69DB4329491340CB603B685B6848
:1012CC0003F40033002B06D0244B5A682349BB6926
:1012DC0013434B6006E0214B5A68BB69DB431F4943
:1012EC0013404B603B685B6803F48033002B06D0E3
:1012FC001A4B1A681949BB6913430B6006E0174B6C
:10130C001A68BB69DB43154913400B607B6A0133D8
:10131C007B623B681A687B6A22FA03F3002B7FF42A
:10132C00AFAE00BF00BF2C37BD4680BC704700BFBE
:10133C0000003210000031100000221000002110BB
:10134C0000001210000011100010024000000140BB
:10135C0000080140000C0140001001400004014055
:10136C0080B483B000AF78600B467B8013467B70F3
:10137C007B78002B03D07A887B681A6103E07B882A
:10138C001A047B681A6100BF0C37BD4680BC7047DD
:10139C0080B586B000AF78607B68002B01D101234B
:1013AC006CE27B681B6803F00103002B00F0878064
:1013BC00924B5B6803F00C03042B0CD08F4B5B68D7
:1013CC0003F00C03082B12D18C4B5B6803F48033B5
:1013DC00B3F5803F0BD1894B1B6803F40033002B12
:1013EC006CD07B685B68002B68D1012346E27B687C
:1013FC005B68B3F5803F06D1804B1B687F4A43F492
:10140C00803313602EE07B685B68002B0CD17B4B28
:10141C001B687A4A23F480331360784B1B68774A35
:10142C0023F4802313601DE07B685B68B3F5A02F69
:10143C000CD1724B1B68714A43F4802313606F4BC1
:10144C001B686E4A43F4803313600BE06B4B1B68D4
:10145C006A4A23F480331360684B1B68674A23F491
:10146C00802313607B685B68002B13D0FFF7E6FCCE
:10147C00386108E0FFF7E2FC02463B69D31A642BA3
:10148C0001D90323FAE15D4B1B6803F40033002BF5
:10149C00F0D014E0FFF7D2FC386108E0FFF7CEFC87
:1014AC0002463B69D31A642B01D90323E6E1534B63
:1014BC001B6803F40033002BF0D100E000BF7B6805
:1014CC001B6803F00203002B63D04C4B5B6803F0EA
:1014DC000C03002B0BD0494B5B6803F00C03082B5F
:1014EC001CD1464B5B6803F48033002B16D1434B65
:1014FC001B6803F00203002B05D07B681B69012BD2
:10150C0001D00123BAE13D4B1B6823F0F8027B6844
:10151C005B69DB00394913430B603AE07B681B695C
:10152C00002B20D0364B01221A60FFF787FC386164
:10153C0008E0FFF783FC02463B69D31A022B01D962
:10154C0003239BE12D4B1B6803F00203002BF0D00F
:10155C002A4B1B6823F0F8027B685B69DB00274988
:10156C0013430B6015E0264B00221A60FFF766FC54
:10157C00386108E0FFF762FC02463B69D31A022B84
:10158C0001D903237AE11D4B1B6803F00203002BE6
:10159C00F0D17B681B6803F00803002B3AD07B6802
:1015AC009B69002B19D0174B01221A60FFF746FCE0
:1015BC00386108E0FFF742FC02463B69D31A022B64
:1015CC0001D903235AE10D4B5B6A03F00203002B94
:1015DC00F0D0012000F09AFA1CE00A4B00221A60AD
:1015EC00FFF72CFC38610FE0FFF728FC02463B6943
:1015FC00D31A022B08D9032340E100BF001002408C
:10160C0000004242800442429E4B5B6A03F002039C
:10161C00002BE9D17B681B6803F00403002B00F05E
:10162C00A6800023FB75974BDB6903F08053002BDE
:10163C000DD1944BDB69934A43F08053D361914BAA
:10164C00DB6903F08053BB60BB680123FB758E4BD9
:10165C001B6803F48073002B18D18B4B1B688A4AD0
:10166C0043F480731360FFF7E9FB386108E0FFF780
:10167C00E5FB02463B69D31A642B01D90323FDE039
:10168C00814B1B6803F48073002BF0D07B68DB6804
:10169C00012B06D17B4B1B6A7A4A43F00103136280
:1016AC002DE07B68DB68002B0CD1764B1B6A754AEE
:1016BC0023F001031362734B1B6A724A23F0040379
:1016CC0013621CE07B68DB68052B0CD16D4B1B6A2D
:1016DC006C4A43F0040313626A4B1B6A694A43F079
:1016EC00010313620BE0674B1B6A664A23F001038C
:1016FC001362644B1B6A634A23F0040313627B6816
:10170C00DB68002B15D0FFF799FB38610AE0FFF777
:10171C0095FB02463B69D31A41F28832934201D9B8
:10172C000323ABE0574B1B6A03F00203002BEED0F4
:10173C0014E0FFF783FB38610AE0FFF77FFB0246FA
:10174C003B69D31A41F28832934201D9032395E0C5
:10175C004C4B1B6A03F00203002BEED1FB7D012BDB
:10176C0005D1484BDB69474A23F08053D3617B6832
:10177C00DB69002B00F08180424B5B6803F00C03AB
:10178C00082B61D07B68DB69022B46D13F4B0022D2
:10179C001A60FFF753FB386108E0FFF74FFB024676
:1017AC003B69D31A022B01D9032367E0354B1B6825
:1017BC0003F00073002BF0D17B681B6AB3F5803FFC
:1017CC0008D1304B5B6823F400327B689B682D4951
:1017DC0013434B602B4B5B6823F474127B68196AC0
:1017EC007B685B6A0B43274913434B60274B0122F1
:1017FC001A60FFF723FB386108E0FFF71FFB024676
:10180C003B69D31A022B01D9032337E01D4B1B680C
:10181C0003F00073002BF0D02FE01C4B00221A6059
:10182C00FFF70CFB386108E0FFF708FB02463B6949
:10183C00D31A022B01D9032320E0124B1B6803F0AF
:10184C000073002BF0D118E07B68DB69012B01D110
:10185C00012313E00B4B5B68FB60FB6803F48032E5
:10186C007B681B6A9A4206D1FB6803F470127B6892
:10187C005B6A9A4201D0012300E000231846183716
:10188C00BD4680BD00100240007000406000424226
:10189C0080B584B000AF786039607B68002B01D1D3
:1018AC000123D0E06A4B1B6803F007033A689A42A5
:1018BC0010D9674B1B6823F0070265493B6813433B
:1018CC000B60634B1B6803F007033A689A4201D024
:1018DC000123B8E07B681B6803F00203002B20D0C7
:1018EC007B681B6803F00403002B05D0594B5B6825
:1018FC00584A43F4E06353607B681B6803F00803A9
:10190C00002B05D0534B5B68524A43F46053536031
:10191C00504B5B6823F0F0027B689B684D49134386
:10192C004B607B681B6803F00103002B40D07B6885
:10193C005B68012B07D1474B1B6803F40033002B6A
:10194C0015D101237FE07B685B68022B07D1414BEB
:10195C001B6803F00073002B09D1012373E03D4B8E
:10196C001B6803F00203002B01D101236BE0394B00
:10197C005B6823F003027B685B68364913434B605A
:10198C00FFF75CFAF8600AE0FFF758FA0246FB68CA
:10199C00D31A41F28832934201D9032353E02D4BE1
:1019AC005B6803F00C027B685B689B009A42EBD18E
:1019BC00274B1B6803F007033A689A4210D2244B5A
:1019CC001B6823F0070222493B6813430B60204B32
:1019DC001B6803F007033A689A4201D0012332E0F6
:1019EC007B681B6803F00403002B08D0194B5B6861
:1019FC0023F4E0627B68DB68164913434B607B6819
:101A0C001B6803F00803002B09D0124B5B6823F40E
:101A1C0060527B681B69DB000E4913434B6000F07E
:101A2C0021F802460B4B5B681B0903F00F030A49B4
:101A3C00CB5C22FA03F3094A1360094B1B68184666
:101A4C00FFF7BAF9002318461037BD4680BD00BF1A
:101A5C000020024000100240982300081C000020C7
:101A6C002000002080B487B000AF0023FB6000236F
:101A7C00BB6000237B6100237B6000233B611E4B1A
:101A8C005B68FB60FB6803F00C03042B02D0082B93
:101A9C0003D027E0194B3B6127E0FB689B0C03F05C
:101AAC000F03174AD35C7B60FB6803F48033002B75
:101ABC0010D0114B5B685B0C03F00103114AD35C33
:101ACC00BB607B680D4A02FB03F2BB68B2FBF3F30D
:101ADC007B6104E07B680C4A02FB03F37B617B694E
:101AEC003B6102E0054B3B6100BF3B6918461C376C
:101AFC00BD4680BC704700BF0010024000127A0047
:101B0C00A8230008B823000800093D0080B485B064
:101B1C0000AF78600A4B1B680A4AA2FB03235B0ADE
:101B2C007A6802FB03F3FB6000BFFB685A1EFA6085
:101B3C00002BF9D100BF00BF1437BD4680BC7047E5
:101B4C001C000020D34D621080B582B000AF7860CD
:101B5C007B68002B01D1012341E07B6893F83D3079
:101B6C00DBB2002B06D17B68002283F83C2078681E
:101B7C00FFF78AF87B68022283F83D207B681A689D
:101B8C007B6804331946104600F06EFA7B6801221C
:101B9C0083F846207B68012283F83E207B68012273
:101BAC0083F83F207B68012283F840207B68012268
:101BBC0083F841207B68012283F842207B68012254
:101BCC0083F843207B68012283F844207B68012240
:101BDC0083F845207B68012283F83D2000231846BA
:101BEC000837BD4680BD000080B485B000AF78607A
:101BFC007B6893F83D30DBB2012B01D0012335E03B
:101C0C007B68022283F83D207B681B68DA687B685E
:101C1C001B6842F00102DA607B681B68164A93422B
:101C2C0009D07B681B68B3F1804F04D07B681B68BC
:101C3C00124A934211D17B681B689B6803F007031F
:101C4C00FB60FB68062B10D07B681B681A687B68EE
:101C5C001B6842F001021A6007E07B681B681A6877
:101C6C007B681B6842F001021A6000231846143787
:101C7C00BD4680BC704700BF002C014000040040F2
:101C8C0080B582B000AF78607B681B681B6903F07D
:101C9C000203022B22D17B681B68DB6803F0020372
:101CAC00022B1BD17B681B686FF002021A617B68E8
:101CBC0001221A777B681B689B6903F00303002BD6
:101CCC0003D0786800F0B4F905E0786800F0A7F963
:101CDC00786800F0B6F97B6800221A777B681B687D
:101CEC001B6903F00403042B22D17B681B68DB689F
:101CFC0003F00403042B1BD17B681B686FF00402F8
:101D0C001A617B6802221A777B681B689B6903F453
:101D1C004073002B03D0786800F08AF905E07868EE
:101D2C0000F07DF9786800F08CF97B6800221A7756
:101D3C007B681B681B6903F00803082B22D17B68A6
:101D4C001B68DB6803F00803082B1BD17B681B683E
:101D5C006FF008021A617B6804221A777B681B6893
:101D6C00DB6903F00303002B03D0786800F060F903
:101D7C0005E0786800F053F9786800F062F97B6848
:101D8C0000221A777B681B681B6903F01003102B69
:101D9C0022D17B681B68DB6803F01003102B1BD16E
:101DAC007B681B686FF010021A617B6808221A7737
:101DBC007B681B68DB6903F44073002B03D07868E5
:101DCC0000F036F905E0786800F029F9786800F041
:101DDC0038F97B6800221A777B681B681B6903F053
:101DEC000103012B0ED17B681B68DB6803F0010338
:101DFC00012B07D17B681B686FF001021A617868B0
:101E0C00FEF756FE7B681B681B6903F08003802B72
:101E1C000ED17B681B68DB6803F08003802B07D135
:101E2C007B681B686FF080021A61786800F06BFAAF
:101E3C007B681B681B6903F04003402B0ED17B6849
:101E4C001B68DB6803F04003402B07D17B681B68E1
:101E5C006FF040021A61786800F0FCF87B681B6830
:101E6C001B6903F02003202B0ED17B681B68DB68F9
:101E7C0003F02003202B07D17B681B686FF0200236
:101E8C001A61786800F036FA00BF0837BD4680BD8D
:101E9C0080B584B000AF786039600023FB737B6839
:101EAC0093F83C30012B01D10223B4E07B68012272
:101EBC0083F83C207B68022283F83D207B681B68FA
:101ECC009B68BB60BB6823F07703BB60BB6823F4E3
:101EDC007F43BB607B681B68BA689A603B681B6871
:101EEC00B3F5005F3ED0B3F5005F00F28780B3F529
:101EFC00805F00F08680B3F5805F7FD8702B1AD09E
:101F0C00702B7BD8602B50D0602B77D8502B3CD0CB
:101F1C00502B73D8402B58D0402B6FD8302B64D01B
:101F2C00302B6BD8202B60D0202B67D8002B5CD0AB
:101F3C00102B5AD062E07B6818683B6899683B6844
:101F4C005A683B68DB6800F05EF97B681B689B682D
:101F5C00BB60BB6843F07703BB607B681B68BA68E7
:101F6C009A604FE07B6818683B6899683B685A68D0
:101F7C003B68DB6800F047F97B681B689A687B68F4
:101F8C001B6842F480429A603CE07B6818683B68AE
:101F9C0059683B68DB681A4600F0BEF87B681B6822
:101FAC005021184600F015F92CE07B6818683B6846
:101FBC0059683B68DB681A4600F0DCF87B681B68E4
:101FCC006021184600F005F91CE07B6818683B6836
:101FDC0059683B68DB681A4600F09EF87B681B6802
:101FEC004021184600F0F5F80CE07B681A683B6855
:101FFC001B681946104600F0ECF803E00123FB7354
:10200C0000E000BF7B68012283F83D207B68002242
:10201C0083F83C20FB7B18461037BD4680BD80B44E
:10202C0083B000AF786000BF0C37BD4680BC7047F2
:10203C0080B483B000AF786000BF0C37BD4680BC65
:10204C00704780B483B000AF786000BF0C37BD46DA
:10205C0080BC704780B483B000AF786000BF0C3791
:10206C00BD4680BC7047000080B485B000AF78607E
:10207C0039607B681B68FB607B68254A934207D0FC
:10208C007B68B3F1804F03D07B68224A934208D11E
:10209C00FB6823F07003FB603B685B68FA681343D2
:1020AC00FB607B681A4A934207D07B68B3F1804F80
:1020BC0003D07B68174A934208D1FB6823F4407322
:1020CC00FB603B68DB68FA681343FB60FB6823F03A
:1020DC0080023B685B691343FB607B68FA681A609B
:1020EC003B689A687B68DA623B681A687B689A621C
:1020FC007B68074A934203D13B681A697B681A6371
:10210C007B6801225A6100BF1437BD4680BC704702
:10211C00002C01400004004080B487B000AFF86090
:10212C00B9607A60FB681B6A7B61FB681B6A23F0F1
:10213C000102FB681A62FB689B693B613B6923F0F7
:10214C00F0033B617B681B013A6913433B617B697C
:10215C0023F00A037B617A69BB6813437B61FB68DC
:10216C003A699A61FB687A691A6200BF1C37BD46EE
:10217C0080BC704780B487B000AFF860B9607A60FB
:10218C00FB681B6A7B61FB681B6A23F01002FB680F
:10219C001A62FB689B693B613B6923F470433B61AA
:1021AC007B681B033A6913433B617B6923F0A003F3
:1021BC007B61BB681B017A6913437B61FB683A69DD
:1021CC009A61FB687A691A6200BF1C37BD4680BCF5
:1021DC00704780B485B000AF786039607B689B68CD
:1021EC00FB60FB6823F07003FB603A68FB681343E9
:1021FC0043F00703FB607B68FA689A6000BF1437F2
:10220C00BD4680BC704780B487B000AFF860B96041
:10221C007A603B60FB689B687B617B6923F47F433E
:10222C007B613B681A027B681A43BB6813437A696B
:10223C0013437B61FB687A699A6000BF1C37BD460B
:10224C0080BC704780B485B000AF786039607B6823
:10225C0093F83C30012B01D1022341E07B68012231
:10226C0083F83C207B68022283F83D207B681B6846
:10227C005B68FB607B681B689B68BB60FB6823F03A
:10228C007003FB603B681B68FA681343FB607B6858
:10229C001B68FA685A607B681B68144A934209D021
:1022AC007B681B68B3F1804F04D07B681B68104AB5
:1022BC0093420CD1BB6823F08003BB603B685B6826
:1022CC00BA681343BB607B681B68BA689A607B680A
:1022DC00012283F83D207B68002283F83C200023F8
:1022EC0018461437BD4680BC704700BF002C014017
:1022FC000004004080B483B000AF786000BF0C379E
:10230C00BD4680BC704780B483B000AF786000BF1E
:10231C000C37BD4680BC704770B500260C4D0D4C7B
:10232C00641BA410A64209D100F022F800260A4D25
:10233C000A4C641BA410A64205D170BD55F8043B91
:10234C0098470136EEE755F8043B98470136F2E71B
:10235C00BC230008BC230008BC230008C0230008D1
:10236C0003460244934200D1704703F8011BF9E77E
:10237C00F8B500BFF8BC08BC9E467047F8B500BF66
:08238C00F8BC08BC9E46704736
:10239400040000000000000000000000010203042B
:1023A4000607080902030405060708090A0B0C0DB1
:0823B4000E0F101001020000E1
:0423BC0031010008E3
:0423C0000D01000803
:1023C4000100000005000000030000000000000000
:1023D4000500000000000000030000000024F400D9
:0823E4001000000001000000E0
:0400000508000D4D95
:00000001FF
